:020000040800F2
:10000000002800202D0E0008BD0D0008C30D0008BB
:10001000C90D0008CF0D0008D50D00080000000034
:10002000000000000000000000000000DB0D0008E0
:10003000E70D000800000000F30D0008FF0D0008A8
:10004000750E0008750E0008750E0008750E000884
:10005000750E0008750E0008750E0008750E000874
:10006000750E0008750E0008750E0008750E000864
:10007000750E0008750E0008750E0008750E000854
:10008000750E0008750E0008750E0008750E000844
:10009000750E0008750E0008750E0008750E000834
:1000A000750E0008750E0008750E0008750E000824
:1000B0000D0E0008750E000800000000750E000807
:1000C000750E00080000000000000000750E00081A
:1000D00000000000750E0008750E0008000000000A
:1000E000750E0008750E0008750E0008000000006F
:1000F0000000000000000000000000000000000000
:0C01000000000000000000005FF808F1A3
:10010C0010B5054C237833B9044B13B10448AFF345
:10011C0000800123237010BD180000200000000097
:10012C004424000808B5034B1BB103490348AFF343
:10013C00008008BD000000001C00002044240008C2
:10014C0080B483B000AF78607B68084A82FB0312EE
:10015C009210DB17D31A064A1360064B00221A6062
:10016C0000BF0C37BD4680BC704700BF6766666633
:10017C00340000203800002080B400AF094B1B680D
:10018C00002B0BDD074B1B68013B064A1360054B2C
:10019C001B68002B02D1044B01221A6000BFBD4624
:1001AC0080BC7047340000203800002080B4A7B019
:1001BC0000AF03463960FB710F23C7F8943020E081
:1001CC00FB7903F00103C7F88830FB795B08FB71FE
:1001DC00D7F894309B0007F198021344D7F8882085
:1001EC0043F8502CD7F894309B0007F19802134435
:1001FC00D7F8882043F8902CD7F89430013BC7F8F7
:10020C009430D7F89430002BDADA0023C7F890300A
:10021C0032E0244B1B68D7F89020D31AC7F88C30E7
:10022C00D7F88C30002B10DBD7F890309B0007F1FF
:10023C009802134453F8902CD7F88C309B0007F19C
:10024C0098010B4443F8502C11E0164B1B68C3F17A
:10025C001001D7F890309B0007F19802134453F823
:10026C00902C8B0007F198010B4443F8502CD7F8D5
:10027C0090300133C7F89030D7F890300F2BC8DD91
:10028C003B689B0007F19802134453F8503C012B38
:10029C0001D1012300E0002318469C37BD4680BCE9
:1002AC00704700BF3C00002080B582B000AF786082
:1002BC007B68072B7AD801A252F823F0E9020008D8
:1002CC00030300081D03000837030008510300084E
:1002DC006B030008850300089F03000800224FF4FD
:1002EC000041354801F0ACF801224FF480713248DE
:1002FC0001F0A6F85BE000224FF480712E4801F06B
:10030C009FF801224FF400712B4801F099F84EE050
:10031C0000224FF40071284801F092F801224FF4AA
:10032C008061254801F08CF841E000224FF4806197
:10033C00214801F085F801224FF400611E4801F0BC
:10034C007FF834E000224FF400611B4801F078F88C
:10035C0001224FF48051184801F072F827E0002276
:10036C004FF48051144801F06BF801224FF4005106
:10037C00114801F065F81AE000224FF400510E48C4
:10038C0001F05EF801224FF480410B4801F058F85F
:10039C000DE000224FF48041074801F051F8012292
:1003AC004FF40041044801F04BF800E000BF00BFDF
:1003BC000837BD4680BD00BF000C014080B582B03F
:1003CC0000AF78607B68072B00F2568301A252F8CD
:1003DC0023F000BF01040008CF0400089D050008AD
:1003EC00750600084307000811080008E908000812
:1003FC00B70900089A4B1B7804211846FFF7D6FE64
:10040C0003461A460421974801F01AF8944B1B78BE
:10041C0005211846FFF7CAFE03461A4608219148E3
:10042C0001F00EF88E4B1B7806211846FFF7BEFE26
:10043C0003461A464FF480618A4801F001F8884B54
:10044C001B7807211846FFF7B1FE03461A464FF4F6
:10045C000061844800F0F4FF814B1B78082118469A
:10046C00FFF7A4FE03461A464FF480517D4800F076
:10047C00E7FF7B4B1B7809211846FFF797FE0346D5
:10048C001A464FF40051774800F0DAFF744B1B7892
:10049C000A211846FFF78AFE03461A464FF480419C
:1004AC00704800F0CDFF6E4B1B780B211846FFF700
:1004BC007DFE03461A464FF400416A4800F0C0FF27
:1004CC00DBE2674B5B7804211846FFF76FFE0346AF
:1004DC001A460421634800F0B3FF614B5B78052199
:1004EC001846FFF763FE03461A4608215D4800F0E4
:1004FC00A7FF5B4B5B7806211846FFF757FE0346B8
:10050C001A464FF48061574800F09AFF544B5B78C1
:10051C0007211846FFF74AFE03461A464FF40061BE
:10052C00504800F08DFF4E4B5B7808211846FFF7C2
:10053C003DFE03461A464FF480514A4800F080FFB6
:10054C00474B5B7809211846FFF730FE03461A46E5
:10055C004FF40051434800F073FF414B5B780A2184
:10056C001846FFF723FE03461A464FF480413D48D8
:10057C0000F066FF3A4B5B780B211846FFF716FE2E
:10058C0003461A464FF40041364800F059FF74E216
:10059C00334B9B7804211846FFF708FE03461A4696
:1005AC000421304800F04CFF2D4B9B780521184658
:1005BC00FFF7FCFD03461A4608212A4800F040FFCD
:1005CC00274B9B7806211846FFF7F0FD03461A4689
:1005DC004FF48061234800F033FF214B9B780721B7
:1005EC001846FFF7E3FD03461A464FF400611D4819
:1005FC0000F026FF1A4B9B7808211846FFF7D6FD12
:10060C0003461A464FF48051164800F019FF144B5C
:10061C009B7809211846FFF7C9FD03461A464FF48B
:10062C000051104800F00CFF0D4B9B780A21184626
:10063C00FFF7BCFD03461A464FF48041094800F011
:10064C00FFFE074B9B780B211846FFF7AFFD0346C7
:10065C001A464FF40041034800F0F2FE0DE200BFD1
:10066C0004000020000801409A4BDB780421184656
:10067C00FFF79CFD03461A460421974800F0E0FE64
:10068C00944BDB7805211846FFF790FD03461A467C
:10069C000821914800F0D4FE8E4BDB7806211846D9
:1006AC00FFF784FD03461A464FF480618A4800F038
:1006BC00C7FE884BDB7807211846FFF777FD03460A
:1006CC001A464FF40061844800F0BAFE814BDB7887
:1006DC0008211846FFF76AFD03461A464FF480516D
:1006EC007D4800F0ADFE7B4BDB7809211846FFF707
:1006FC005DFD03461A464FF40051774800F0A0FE0A
:10070C00744BDB780A211846FFF750FD03461A4656
:10071C004FF48041704800F093FE6E4BDB780B2158
:10072C001846FFF743FD03461A464FF400416A484A
:10073C0000F086FEA1E1674B1B7904211846FFF7F8
:10074C0035FD03461A460421634800F079FE614BDF
:10075C001B7905211846FFF729FD03461A46082187
:10076C005D4800F06DFE5B4B1B7906211846FFF7C8
:10077C001DFD03461A464FF48061574800F060FE99
:10078C00544B1B7907211846FFF710FD03461A46F8
:10079C004FF40061504800F053FE4E4B1B7908217A
:1007AC001846FFF703FD03461A464FF480514A489A
:1007BC0000F046FE474B1B7909211846FFF7F6FC63
:1007CC0003461A464FF40051434800F039FE414BA2
:1007DC001B790A211846FFF7E9FC03461A464FF429
:1007EC0080413D4800F02CFE3A4B1B790B211846FA
:1007FC00FFF7DCFC03461A464FF40041364800F084
:10080C001FFE3AE1334B5B7904211846FFF7CEFC0F
:10081C0003461A460421304800F012FE2D4B5B793A
:10082C0005211846FFF7C2FC03461A4608212A4840
:10083C0000F006FE274B5B7906211846FFF7B6FC45
:10084C0003461A464FF48061234800F0F9FD214B12
:10085C005B7907211846FFF7A9FC03461A464FF4AB
:10086C0000611D4800F0ECFD1A4B5B79082118461D
:10087C00FFF79CFC03461A464FF48051164800F0D3
:10088C00DFFD144B5B7909211846FFF78FFC0346FB
:10089C001A464FF40051104800F0D2FD0D4B5B7915
:1008AC000A211846FFF782FC03461A464FF4804192
:1008BC00094800F0C5FD074B5B790B211846FFF783
:1008CC0075FC03461A464FF40041034800F0B8FD8E
:1008DC00D3E000BF0400002000080140694B9B7965
:1008EC0004211846FFF762FC03461A4604216648A9
:1008FC0000F0A6FD634B9B7905211846FFF756FCCB
:10090C0003461A460821604800F09AFD5D4B9B791E
:10091C0006211846FFF74AFC03461A464FF480613D
:10092C00594800F08DFD574B9B7907211846FFF76E
:10093C003DFC03461A464FF40061534800F080FD1D
:10094C00504B9B7908211846FFF730FC03461A469A
:10095C004FF480514C4800F073FD4A4B9B790921B0
:10096C001846FFF723FC03461A464FF4005146483D
:10097C0000F066FD434B9B790A211846FFF716FCE5
:10098C0003461A464FF480413F4800F059FD3D4B59
:10099C009B790B211846FFF709FC03461A464FF4C6
:1009AC000041394800F04CFD67E0364BDB790421FF
:1009BC001846FFF7FBFB03461A460421324800F0A9
:1009CC003FFD304BDB7905211846FFF7EFFB034663
:1009DC001A4608212C4800F033FD2A4BDB790621FE
:1009EC001846FFF7E3FB03461A464FF4806126488E
:1009FC0000F026FD234BDB7907211846FFF7D6FBC9
:100A0C0003461A464FF400611F4800F019FD1D4BB8
:100A1C00DB7908211846FFF7C9FB03461A464FF449
:100A2C008051194800F00CFD164BDB790921184652
:100A3C00FFF7BCFB03461A464FF40051124800F076
:100A4C00FFFC104BDB790A211846FFF7AFFB03467E
:100A5C001A464FF480410C4800F0F2FC094BDB794C
:100A6C000B211846FFF7A2FB03461A464FF4004130
:100A7C00054800F0E5FC00E000BF00BF0837BD46AC
:100A8C0080BD00BF040000200008014080B500AF0D
:100A9C0000F0ECF900F048F800F082F800F0CCF827
:100AAC001D4801F011F94FF4FA70FFF749FB1B4B8D
:100ABC001B68012BFBD11A4B1B680133184A1360BE
:100ACC00174B1B68082B16D1164B1B6801335A4267
:100ADC0003F00F0302F00F0258BF5342114A136088
:100AEC000F4B1B685A4203F0070302F0070258BF72
:100AFC0053420B4A13600A4B1B681846FFF7D4FB92
:100B0C00074B1B681846FFF759FC6420FFF718FBCE
:100B1C00024B00221A60CAE7400000203800002077
:100B2C00000000203C00002080B590B000AF07F121
:100B3C00180328220021184601F076FC3B1D0022E8
:100B4C001A605A609A60DA601A610223BB61012351
:100B5C00BB621023FB6200237B6307F1180318466A
:100B6C0000F086FC0346002B01D000F0C5F80F23E3
:100B7C007B600023BB600023FB6000233B610023F0
:100B8C007B613B1D0021184600F0F2FE0346002B52
:100B9C0001D000F0B1F800BF4037BD4680BD000069
:100BAC0080B586B000AF07F1080300221A605A60C6
:100BBC009A60DA603B4600221A605A601D4B4FF077
:100BCC0080421A601B4B41F63F725A60194B00224F
:100BDC009A60184B0922DA60164B00221A61154BE9
:100BEC0000229A61134801F01FF80346002B01D034
:100BFC0000F082F84FF48053BB6007F108031946EC
:100C0C000C4801F09DF90346002B01D000F074F85C
:100C1C0000233B6000237B603B461946054801F0EE
:100C2C0075FB0346002B01D000F066F800BF1837A7
:100C3C00BD4680BD4000002080B586B000AF07F1F6
:100C4C00080300221A605A609A60DA60224B9B6992
:100C5C00214A43F0040393611F4B9B6903F0040387
:100C6C007B607B681C4B9B691B4A43F008039361B8
:100C7C00194B9B6903F008033B603B6800224FF65D
:100C8C00FC71164800F0DCFB00224FF67F71144813
:100C9C0000F0D6FB4FF6FC73BB600123FB60002316
:100CAC003B6102237B6107F1080319460B4800F0F6
:100CBC004DFA4FF67F73BB600123FB6000233B6151
:100CCC0002237B6107F108031946054800F03EFA40
:100CDC0000BF1837BD4680BD00100240000801401F
:100CEC00000C014080B582B000AF7860FFF744FA89
:100CFC0000BF0837BD4680BD80B400AF72B600BFE0
:100D0C00FEE7000080B485B000AF154B9B69144A18
:100D1C0043F001039361124B9B6903F00103BB6029
:100D2C00BB680F4BDB690E4A43F08053D3610C4B0D
:100D3C00DB6903F080537B607B680A4B5B68FB606C
:100D4C00FB6823F0E063FB60FB6843F08063FB60AF
:100D5C00044AFB68536000BF1437BD4680BC704723
:100D6C00001002400000014080B584B000AF7860F4
:100D7C007B681B68B3F1804F13D10C4BDB690B4ABA
:100D8C0043F00103D361094BDB6903F00103FB6002
:100D9C00FB68002200211C2000F0A1F91C2000F0AF
:100DAC00BAF900BF1037BD4680BD00BF001002402D
:100DBC0080B400AFFEE780B400AFFEE780B400AFB4
:100DCC00FEE780B400AFFEE780B400AFFEE780B46E
:100DDC0000AF00BFBD4680BC704780B400AF00BF01
:100DEC00BD4680BC704780B400AF00BFBD4680BC20
:100DFC00704780B500AF00F07FF800BF80BD0000E9
:100E0C0080B500AF024800F0ABFF00BF80BD00BF53
:100E1C004000002080B400AF00BFBD4680BC7047CE
:100E2C00FFF7F8FF0B480C490C4A002302E0D4589A
:100E3C00C4500433C4188C42F9D3094A094C00231A
:100E4C0001E013600432A242FBD301F0C9FAFFF7B0
:100E5C001DFE7047000000201800002088240008A8
:100E6C00180000208C000020FEE7000080B500AFC9
:100E7C00084B1B68074A43F010031360032000F073
:100E8C0023F90F2000F008F8FFF73CFF0023184669
:100E9C0080BD00BF0020024080B582B000AF7860FA
:100EAC00124B1A68124B1B7819464FF47A73B3FB2A
:100EBC00F1F3B2FBF3F3184600F03BF90346002BB9
:100ECC0001D001230EE07B680F2B0AD80022796831
:100EDC004FF0FF3000F003F9064A7B6813600023E3
:100EEC0000E0012318460837BD4680BD0C000020E9
:100EFC00140000201000002080B400AF054B1B78BC
:100F0C001A46054B1B681344034A136000BFBD46C9
:100F1C0080BC7047140000208800002080B400AF13
:100F2C00024B1B681846BD4680BC704788000020E9
:100F3C0080B485B000AF78607B6803F00703FB607A
:100F4C000C4BDB68BB60BA684FF6FF031340BB6009
:100F5C00FB681A02BB68134343F0BF6343F40033CE
:100F6C00BB60044ABB68D36000BF1437BD4680BC6D
:100F7C00704700BF00ED00E080B400AF044BDB68AD
:100F8C001B0A03F007031846BD4680BC704700BF20
:100F9C0000ED00E080B483B000AF0346FB7197F91D
:100FAC000730002B0BDBFB7903F01F02064997F986
:100FBC0007305B09012000FA02F241F8232000BF40
:100FCC000C37BD4680BC704700E100E080B483B0B4
:100FDC0000AF03463960FB7197F90730002B0ADB31
:100FEC003B68DAB20C4997F907301201D2B20B44C4
:100FFC0083F800230AE03B68DAB20849FB7903F076
:10100C000F03043B1201D2B20B441A7600BF0C370B
:10101C00BD4680BC704700BF00E100E000ED00E081
:10102C0080B489B000AFF860B9607A60FB6803F0F7
:10103C000703FB61FB69C3F10703042B28BF0423DF
:10104C00BB61FB690433062B02D9FB69033B00E04F
:10105C0000237B614FF0FF32BB6902FA03F3DA43E2
:10106C00BB681A407B699A404FF0FF317B6901FAEB
:10107C0003F3D9437B680B40134318462437BD4612
:10108C0080BC704780B582B000AF78607B68013B54
:10109C00B3F1807F01D301230FE00A4A7B68013B47
:1010AC0053600F214FF0FF30FFF790FF054B0022EC
:1010BC009A60044B07221A60002318460837BD4675
:1010CC0080BD00BF10E000E080B582B000AF78605A
:1010DC007868FFF72DFF00BF0837BD4680BD80B58F
:1010EC0086B000AF0346B9607A60FB7300237B6166
:1010FC00FFF742FF78617A68B9687869FFF790FF6B
:10110C00024697F90F3011461846FFF75FFF00BFF4
:10111C001837BD4680BD80B582B000AF0346FB7169
:10112C0097F907301846FFF735FF00BF0837BD4663
:10113C0080BD80B582B000AF78607868FFF7A2FF01
:10114C00034618460837BD4680BD000080B48BB0FE
:10115C0000AF7860396000237B6200233B6248E17A
:10116C0001227B6A02FA03F3FB613B681B68FA6994
:10117C001340BB61BA69FB699A4240F037813B6806
:10118C005B68A34A93425ED0A14A934275D8A14AA8
:10119C00934258D09F4A93426FD89F4A934252D061
:1011AC009D4A934269D89D4A93424CD09B4A9342A4
:1011BC0063D89B4A934246D0994A93425DD8122BEE
:1011CC002AD8122B59D801A252F823F05312000836
:1011DC002D1200083F120008811200088712000827
:1011EC00871200088712000887120008871200086F
:1011FC00871200088712000887120008871200085F
:10120C00871200088712000887120008871200084E
:10121C003512000849120008824A934213D02CE080
:10122C003B68DB683B6229E03B68DB6804333B626C
:10123C0024E03B68DB6808333B621FE03B68DB68FB
:10124C000C333B621AE03B689B68002B02D10423F1
:10125C003B6213E03B689B68012B05D108233B6282
:10126C007B68FA691A6109E008233B627B68FA69BA
:10127C005A6103E000233B6200E000BFBB69FF2B17
:10128C0001D87B6801E07B6804337B61BB69FF2B71
:10129C0002D87B6A9B0002E07B6A083B9B003B61A7
:1012AC007B691A680F213B6901FA03F3DB431A408F
:1012BC00396A3B6901FA03F31A437B691A603B688C
:1012CC005B6803F08053002B00F09080564B9B69B9
:1012DC00554A43F001039361534B9B6903F001039F
:1012EC00BB60BB68514A7B6A9B08023352F82330BF
:1012FC00FB607B6A03F003039B000F2202FA03F3EB
:10130C00DB43FA681340FB607B68494A93420DD07B
:10131C007B68484A934207D07B68474A934201D185
:10132C00022304E0032302E0012300E000237A6A95
:10133C0002F0030292009340FA681343FB603B49AE
:10134C007B6A9B080233FA6841F823203B685B6890
:10135C0003F48013002B06D0384B9A683749BB69CD
:10136C0013438B6006E0354B9A68BB69DB4333490A
:10137C0013408B603B685B6803F40013002B06D0B2
:10138C002E4BDA682D49BB691343CB6006E02B4B1F
:10139C00DA68BB69DB4329491340CB603B685B6867
:1013AC0003F40033002B06D0244B5A682349BB6945
:1013BC0013434B6006E0214B5A68BB69DB431F4962
:1013CC0013404B603B685B6803F48033002B06D002
:1013DC001A4B1A681949BB6913430B6006E0174B8B
:1013EC001A68BB69DB43154913400B607B6A0133F8
:1013FC007B623B681A687B6A22FA03F3002B7FF44A
:10140C00AFAE00BF00BF2C37BD4680BC704700BFDD
:10141C0000003210000031100000221000002110DA
:10142C0000001210000011100010024000000140DA
:10143C0000080140000C0140001001400004014074
:10144C0080B483B000AF78600B467B8013467B7012
:10145C007B78002B03D07A887B681A6103E07B8849
:10146C001A047B681A6100BF0C37BD4680BC7047FC
:10147C0080B586B000AF78607B68002B01D101236A
:10148C006CE27B681B6803F00103002B00F0878083
:10149C00924B5B6803F00C03042B0CD08F4B5B68F6
:1014AC0003F00C03082B12D18C4B5B6803F48033D4
:1014BC00B3F5803F0BD1894B1B6803F40033002B31
:1014CC006CD07B685B68002B68D1012346E27B689B
:1014DC005B68B3F5803F06D1804B1B687F4A43F4B1
:1014EC00803313602EE07B685B68002B0CD17B4B48
:1014FC001B687A4A23F480331360784B1B68774A55
:10150C0023F4802313601DE07B685B68B3F5A02F88
:10151C000CD1724B1B68714A43F4802313606F4BE0
:10152C001B686E4A43F4803313600BE06B4B1B68F3
:10153C006A4A23F480331360684B1B68674A23F4B0
:10154C00802313607B685B68002B13D0FFF7E6FCED
:10155C00386108E0FFF7E2FC02463B69D31A642BC2
:10156C0001D90323FAE15D4B1B6803F40033002B14
:10157C00F0D014E0FFF7D2FC386108E0FFF7CEFCA6
:10158C0002463B69D31A642B01D90323E6E1534B82
:10159C001B6803F40033002BF0D100E000BF7B6824
:1015AC001B6803F00203002B63D04C4B5B6803F009
:1015BC000C03002B0BD0494B5B6803F00C03082B7E
:1015CC001CD1464B5B6803F48033002B16D1434B84
:1015DC001B6803F00203002B05D07B681B69012BF1
:1015EC0001D00123BAE13D4B1B6823F0F8027B6864
:1015FC005B69DB00394913430B603AE07B681B697C
:10160C00002B20D0364B01221A60FFF787FC386183
:10161C0008E0FFF783FC02463B69D31A022B01D981
:10162C0003239BE12D4B1B6803F00203002BF0D02E
:10163C002A4B1B6823F0F8027B685B69DB002749A7
:10164C0013430B6015E0264B00221A60FFF766FC73
:10165C00386108E0FFF762FC02463B69D31A022BA3
:10166C0001D903237AE11D4B1B6803F00203002B05
:10167C00F0D17B681B6803F00803002B3AD07B6821
:10168C009B69002B19D0174B01221A60FFF746FCFF
:10169C00386108E0FFF742FC02463B69D31A022B83
:1016AC0001D903235AE10D4B5B6A03F00203002BB3
:1016BC00F0D0012000F09AFA1CE00A4B00221A60CC
:1016CC00FFF72CFC38610FE0FFF728FC02463B6962
:1016DC00D31A022B08D9032340E100BF00100240AB
:1016EC0000004242800442429E4B5B6A03F00203BC
:1016FC00002BE9D17B681B6803F00403002B00F07E
:10170C00A6800023FB75974BDB6903F08053002BFD
:10171C000DD1944BDB69934A43F08053D361914BC9
:10172C00DB6903F08053BB60BB680123FB758E4BF8
:10173C001B6803F48073002B18D18B4B1B688A4AEF
:10174C0043F480731360FFF7E9FB386108E0FFF79F
:10175C00E5FB02463B69D31A642B01D90323FDE058
:10176C00814B1B6803F48073002BF0D07B68DB6823
:10177C00012B06D17B4B1B6A7A4A43F0010313629F
:10178C002DE07B68DB68002B0CD1764B1B6A754A0D
:10179C0023F001031362734B1B6A724A23F0040398
:1017AC0013621CE07B68DB68052B0CD16D4B1B6A4C
:1017BC006C4A43F0040313626A4B1B6A694A43F098
:1017CC00010313620BE0674B1B6A664A23F00103AB
:1017DC001362644B1B6A634A23F0040313627B6835
:1017EC00DB68002B15D0FFF799FB38610AE0FFF797
:1017FC0095FB02463B69D31A41F28832934201D9D8
:10180C000323ABE0574B1B6A03F00203002BEED013
:10181C0014E0FFF783FB38610AE0FFF77FFB024619
:10182C003B69D31A41F28832934201D9032395E0E4
:10183C004C4B1B6A03F00203002BEED1FB7D012BFA
:10184C0005D1484BDB69474A23F08053D3617B6851
:10185C00DB69002B00F08180424B5B6803F00C03CA
:10186C00082B61D07B68DB69022B46D13F4B0022F1
:10187C001A60FFF753FB386108E0FFF74FFB024695
:10188C003B69D31A022B01D9032367E0354B1B6844
:10189C0003F00073002BF0D17B681B6AB3F5803F1B
:1018AC0008D1304B5B6823F400327B689B682D4970
:1018BC0013434B602B4B5B6823F474127B68196ADF
:1018CC007B685B6A0B43274913434B60274B012210
:1018DC001A60FFF723FB386108E0FFF71FFB024695
:1018EC003B69D31A022B01D9032337E01D4B1B682C
:1018FC0003F00073002BF0D02FE01C4B00221A6079
:10190C00FFF70CFB386108E0FFF708FB02463B6968
:10191C00D31A022B01D9032320E0124B1B6803F0CE
:10192C000073002BF0D118E07B68DB69012B01D12F
:10193C00012313E00B4B5B68FB60FB6803F4803204
:10194C007B681B6A9A4206D1FB6803F470127B68B1
:10195C005B6A9A4201D0012300E000231846183735
:10196C00BD4680BD00100240007000406000424245
:10197C0080B584B000AF786039607B68002B01D1F2
:10198C000123D0E06A4B1B6803F007033A689A42C4
:10199C0010D9674B1B6823F0070265493B6813435A
:1019AC000B60634B1B6803F007033A689A4201D043
:1019BC000123B8E07B681B6803F00203002B20D0E6
:1019CC007B681B6803F00403002B05D0594B5B6844
:1019DC00584A43F4E06353607B681B6803F00803C8
:1019EC00002B05D0534B5B68524A43F46053536051
:1019FC00504B5B6823F0F0027B689B684D491343A6
:101A0C004B607B681B6803F00103002B40D07B68A4
:101A1C005B68012B07D1474B1B6803F40033002B89
:101A2C0015D101237FE07B685B68022B07D1414B0A
:101A3C001B6803F00073002B09D1012373E03D4BAD
:101A4C001B6803F00203002B01D101236BE0394B1F
:101A5C005B6823F003027B685B68364913434B6079
:101A6C00FFF75CFAF8600AE0FFF758FA0246FB68E9
:101A7C00D31A41F28832934201D9032353E02D4B00
:101A8C005B6803F00C027B685B689B009A42EBD1AD
:101A9C00274B1B6803F007033A689A4210D2244B79
:101AAC001B6823F0070222493B6813430B60204B51
:101ABC001B6803F007033A689A4201D0012332E015
:101ACC007B681B6803F00403002B08D0194B5B6880
:101ADC0023F4E0627B68DB68164913434B607B6838
:101AEC001B6803F00803002B09D0124B5B6823F42E
:101AFC0060527B681B69DB000E4913434B6000F09E
:101B0C0021F802460B4B5B681B0903F00F030A49D3
:101B1C00CB5C22FA03F3094A1360094B1B68184685
:101B2C00FFF7BAF9002318461037BD4680BD00BF39
:101B3C0000200240001002405C2400080C00002031
:101B4C001000002080B487B000AF0023FB6000239E
:101B5C00BB6000237B6100237B6000233B611E4B39
:101B6C005B68FB60FB6803F00C03042B02D0082BB2
:101B7C0003D027E0194B3B6127E0FB689B0C03F07B
:101B8C000F03174AD35C7B60FB6803F48033002B94
:101B9C0010D0114B5B685B0C03F00103114AD35C52
:101BAC00BB607B680D4A02FB03F2BB68B2FBF3F32C
:101BBC007B6104E07B680C4A02FB03F37B617B696D
:101BCC003B6102E0054B3B6100BF3B6918461C378B
:101BDC00BD4680BC704700BF0010024000127A0066
:101BEC006C2400087C24000800093D0080B485B0FA
:101BFC0000AF78600A4B1B680A4AA2FB03235B0AFE
:101C0C007A6802FB03F3FB6000BFFB685A1EFA60A4
:101C1C00002BF9D100BF00BF1437BD4680BC704704
:101C2C000C000020D34D621080B582B000AF7860FC
:101C3C007B68002B01D1012341E07B6893F83D3098
:101C4C00DBB2002B06D17B68002283F83C2078683D
:101C5C00FFF78AF87B68022283F83D207B681A68BC
:101C6C007B6804331946104600F056FA7B68012253
:101C7C0083F846207B68012283F83E207B68012292
:101C8C0083F83F207B68012283F840207B68012287
:101C9C0083F841207B68012283F842207B68012273
:101CAC0083F843207B68012283F844207B6801225F
:101CBC0083F845207B68012283F83D2000231846D9
:101CCC000837BD4680BD000080B485B000AF786099
:101CDC007B6893F83D30DBB2012B01D0012335E05A
:101CEC007B68022283F83D207B681B68DA687B687E
:101CFC001B6842F00102DA607B681B68164A93424B
:101D0C0009D07B681B68B3F1804F04D07B681B68DB
:101D1C00124A934211D17B681B689B6803F007033E
:101D2C00FB60FB68062B10D07B681B681A687B680D
:101D3C001B6842F001021A6007E07B681B681A6896
:101D4C007B681B6842F001021A60002318461437A6
:101D5C00BD4680BC704700BF002C01400004004011
:101D6C0080B584B000AF78607B681B68DB68FB6073
:101D7C007B681B681B69BB60BB6803F00203002B0C
:101D8C0020D0FB6803F00203002B1BD07B681B6880
:101D9C006FF002021A617B6801221A777B681B685C
:101DAC009B6903F00303002B03D0786800F098F9CB
:101DBC0005E0786800F08BF9786800F09AF97B6898
:101DCC0000221A77BB6803F00403002B20D0FB68B9
:101DDC0003F00403002B1BD07B681B686FF004021C
:101DEC001A617B6802221A777B681B689B6903F473
:101DFC004073002B03D0786800F072F905E0786826
:101E0C0000F065F9786800F074F97B6800221A77A5
:101E1C00BB6803F00803002B20D0FB6803F0080319
:101E2C00002B1BD07B681B686FF008021A617B6863
:101E3C0004221A777B681B68DB6903F00303002B11
:101E4C0003D0786800F04CF905E0786800F03FF9B1
:101E5C00786800F04EF97B6800221A77BB6803F0B3
:101E6C001003002B20D0FB6803F01003002B1BD0B9
:101E7C007B681B686FF010021A617B6808221A7766
:101E8C007B681B68DB6903F44073002B03D0786814
:101E9C0000F026F905E0786800F019F9786800F090
:101EAC0028F97B6800221A77BB6803F00103002B2A
:101EBC000CD0FB6803F00103002B07D07B681B6878
:101ECC006FF001021A617868FEF70CFFBB6803F033
:101EDC008003002B0CD0FB6803F08003002B07D091
:101EEC007B681B686FF080021A61786800F06FFAEB
:101EFC00BB6803F04003002B0CD0FB6803F04003DD
:101F0C00002B07D07B681B686FF040021A61786861
:101F1C0000F0F8F8BB6803F02003002B0CD0FB6832
:101F2C0003F02003002B07D07B681B686FF02002A6
:101F3C001A61786800F042FA00BF1037BD4680BDC8
:101F4C0080B584B000AF786039600023FB737B6888
:101F5C0093F83C30012B01D10223B4E07B680122C1
:101F6C0083F83C207B68022283F83D207B681B6849
:101F7C009B68BB60BB6823F07703BB60BB6823F432
:101F8C007F43BB607B681B68BA689A603B681B68C0
:101F9C00B3F5005F3ED0B3F5005F00F28780B3F578
:101FAC00805F00F08680B3F5805F7FD8702B1AD0ED
:101FBC00702B7BD8602B50D0602B77D8502B3CD01B
:101FCC00502B73D8402B58D0402B6FD8302B64D06B
:101FDC00302B6BD8202B60D0202B67D8002B5CD0FB
:101FEC00102B5AD062E07B6818683B6899683B6894
:101FFC005A683B68DB6800F06AF97B681B689B6871
:10200C00BB60BB6843F07703BB607B681B68BA6836
:10201C009A604FE07B6818683B6899683B685A681F
:10202C003B68DB6800F053F97B681B689A687B6837
:10203C001B6842F480429A603CE07B6818683B68FD
:10204C0059683B68DB681A4600F0CAF87B681B6865
:10205C005021184600F021F92CE07B6818683B6889
:10206C0059683B68DB681A4600F0E8F87B681B6827
:10207C006021184600F011F91CE07B6818683B6879
:10208C0059683B68DB681A4600F0AAF87B681B6845
:10209C004021184600F001F90CE07B681A683B6897
:1020AC001B681946104600F0F8F803E00123FB7397
:1020BC0000E000BF7B68012283F83D207B68002292
:1020CC0083F83C20FB7B18461037BD4680BD80B49E
:1020DC0083B000AF786000BF0C37BD4680BC704742
:1020EC0080B483B000AF786000BF0C37BD4680BCB5
:1020FC00704780B483B000AF786000BF0C37BD462A
:10210C0080BC704780B483B000AF786000BF0C37E0
:10211C00BD4680BC7047000080B485B000AF7860CD
:10212C0039607B681B68FB607B682B4A934207D045
:10213C007B68B3F1804F03D07B68284A934208D167
:10214C00FB6823F07003FB603B685B68FA68134321
:10215C00FB607B68204A934207D07B68B3F1804FC9
:10216C0003D07B681D4A934208D1FB6823F440736B
:10217C00FB603B68DB68FA681343FB60FB6823F089
:10218C0080023B685B691343FB607B68FA681A60EA
:10219C003B689A687B68DA623B681A687B689A626B
:1021AC007B680D4A934203D13B681A697B681A63BA
:1021BC007B6801225A617B681B6903F00103002BC9
:1021CC0005D07B681B6923F001027B681A6100BF94
:1021DC001437BD4680BC7047002C01400004004001
:1021EC0080B487B000AFF860B9607A60FB681B6A96
:1021FC007B61FB681B6A23F00102FB681A62FB68B7
:10220C009B693B613B6923F0F0033B617B681B01DD
:10221C003A6913433B617B6923F00A037B617A695A
:10222C00BB6813437B61FB683A699A61FB687A6906
:10223C001A6200BF1C37BD4680BC704780B487B0A3
:10224C0000AFF860B9607A60FB681B6A7B61FB6861
:10225C001B6A23F01002FB681A62FB689B693B61E6
:10226C003B6923F470433B617B681B033A6913435E
:10227C003B617B6923F0A0037B61BB681B017A691E
:10228C0013437B61FB683A699A61FB687A691A624D
:10229C0000BF1C37BD4680BC704780B485B000AF12
:1022AC00786039607B689B68FB60FB6823F0700387
:1022BC00FB603A68FB68134343F00703FB607B68E1
:1022CC00FA689A6000BF1437BD4680BC704780B472
:1022DC0087B000AFF860B9607A603B60FB689B68C0
:1022EC007B617B6923F47F437B613B681A027B68CB
:1022FC001A43BB6813437A6913437B61FB687A69A1
:10230C009A6000BF1C37BD4680BC704780B485B056
:10231C0000AF786039607B6893F83C30012B01D1B9
:10232C00022341E07B68012283F83C207B68022277
:10233C0083F83D207B681B685B68FB607B681B68CF
:10234C009B68BB60FB6823F07003FB603B681B68F9
:10235C00FA681343FB607B681B68FA685A607B68F9
:10236C001B68144A934209D07B681B68B3F1804FF9
:10237C0004D07B681B68104A93420CD1BB6823F0D5
:10238C008003BB603B685B68BA681343BB607B68C7
:10239C001B68BA689A607B68012283F83D207B68D1
:1023AC00002283F83C20002318461437BD4680BC1D
:1023BC00704700BF002C01400004004080B483B083
:1023CC0000AF786000BF0C37BD4680BC704780B44E
:1023DC0083B000AF786000BF0C37BD4680BC70473F
:1023EC0070B500260C4D0D4C641BA410A64209D1EF
:1023FC0000F022F800260A4D0A4C641BA410A642D9
:10240C0005D170BD55F8043B98470136EEE755F8F9
:10241C00043B98470136F2E780240008802400082A
:10242C00802400088424000803460244934200D10F
:10243C00704703F8011BF9E7F8B500BFF8BC08BCFE
:10244C009E467047F8B500BFF8BC08BC9E46704766
:10245C000000000000000000010203040607080948
:10246C0002030405060708090A0B0C0D0E0F1010C9
:04247C000102000059
:04248000310100081E
:042484000D0100083E
:10248800FFFFFFFF183C66C3FFFFC3C300127A00BB
:0824980010000000010000002B
:0400000508000E2DB4
:00000001FF
